:0400000006EF02F015
:08000800046ED8CF05F0E0CF33
:1000100006F00001E9CF0CF0EACF07F0E1CF08F0DD
:10002000E2CF09F0D9CF0AF0DACF0BF0F3CF12F01C
:10003000F4CF13F0FACF14F0F5CF15F0F6CF16F099
:10004000F7CF17F000C00EF001C00FF002C010F0A3
:1000500003C011F09DAA30EF00F09EBA63EF00F0EC
:100060000EC000F00FC001F010C002F011C003F08C
:100070000CC0E9FF07C0EAFF078E08C0E1FF09C016
:10008000E2FF0AC0D9FF0BC0DAFF12C0F3FF13C0B2
:10009000F4FF14C0FAFF15C0F5FF16C0F6FF17C035
:1000A000F7FF045006C0E0FF05C0D8FF10009EAA6D
:1000B000FED7ABCF1BF0AECF01F01BA202D0AB98A6
:1000C000AB886FEF00F0036A20501C0FE96E000E42
:1000D0000320EA6EEACF3DF0E9CF3CF0E8D73DC01F
:1000E000EAFF3CC0E9FF01C0EFFF1C503A0808E1FD
:1000F00025B006D0202A2050030802E2206A25807D
:100100009E9A30EF00F064697374616E6365203A03
:1001100020256C64200A00008E0E006E30C001F0B5
:100120002FC002F0036A015209E102C001F0026A25
:10013000080E005E015202E1006A08D0D89001BEAC
:1001400004D0023601360006F9D7019E59EF02F0BD
:100150002F50D8B471D0006E3350D8B46DD0002673
:1001600004E3810E002668E204D07F0E005E64E3A3
:1001700063E030C037F03450371A308E348E32504E
:100180003602F4CF39F031503502F4CF03F0F3CF1B
:1001900038F03602F3503926F4503822000E03228C
:1001A00032503502F3503926F4503822000E026ADC
:1001B0000322022230503602F3503826F450032234
:1001C000000E022230503502F3500326F450022272
:1001D000000E016A012232503402F3503826F450E6
:1001E0000322000E0222012231503402F350032672
:1001F000F4500222000E012230503402F350022645
:10020000F4500122002A01BE05D0383603360236EA
:1002100001360006000E38AE0AD0032A022201225F
:10022000015005E1025003E1035001E1002A37BE0D
:10023000018E37AE019E04D0006A016A026A036A29
:100240006AEF02F08E0E006E2F50005E30C002F09A
:1002500031C001F0028E005209E0D890025202E152
:10026000015204E002320132002EF7D730AE05D041
:10027000011E021E012AD8B4022A73EF02F00900FF
:10028000F6CF30F0F7CF31F0F5509EA8FED7AD6E27
:1002900030C0F6FF31C0F7FF2F2EF1D77EEF02F00E
:1002A000EACF37F0E9CF36F030AE08D0368E36A838
:1002B000362A2F1E301E2F2AD8B4302A3038F009A3
:1002C000326E3226E20F336E320F356E30500F0B26
:1002D000332633263526E90F346E342634262F385C
:1002E0000F0B3426352634363536351E35362F502D
:1002F0000F0B35263236070E316E0A0E34063526C0
:10030000FDE333063426FDE332063326FDE33106F2
:100310003226FDE3EA6A310EE96E070E3614369C8A
:10032000ED52361407E136B8EE5236B803D0200E3F
:10033000006E20D0E926000EEA22E950350803E1DC
:10034000EA5201E1368CEF50006E08E136BC06D06F
:1003500036B814D036B602D0200E0BD036AE06D04A
:100360002D0E006EED50369C369E04D036863698A3
:10037000300E002600509EA8FED7AD6EEE5036AC73
:10038000DCD785EF02F0EA6A2F0EE96EEF500DE040
:10039000060E016E006A002EFED7012EFBD77B0EE3
:1003A000006E002EFED7EF2EF3D71200016A026A0C
:1003B000006A036A345002E1335018E0100E356EC3
:1003C000D89031363236003603363450035C02E1C1
:1003D0003350005C07E33350005ED8A0030634506E
:1003E000035ED88001360236352EEAD712002F5030
:1003F0003102F3CF01F0F4CF00F03202F3500026C7
:1004000030503102F3500020026E1200F86AD09E84
:10041000078E1B6A810EAF6EA60EAC6E900EAB6E91
:10042000206A2590276A640E266EC180C182C1842D
:10043000C196070EB46E196A1A6AC180C182C1845E
:10044000C196C2909698C66AD190800ED56EB50EB0
:10045000CD6E000ECA6E000ECB6E070EB46E9550B8
:10046000956E9650966E100E006E002EFED7000010
:10047000B450A19CB56A9D8AC00EF212D36A9392C1
:100480008A82100E006E002EFED7000094928B928E
:10049000948082A0FDD7CF6ACE6A948082B0FDD7C7
:1004A000CE502A6ECFCF2BF02BC030F02AC02FF0C9
:1004B00033D603C032F002C031F001C030F000C0CA
:1004C0002FF0420E366E600E356E650E346E790E6C
:1004D000336E3ED603C032F002C031F001C030F0BE
:1004E00000C02FF0AFD602C029F001C028F0060EE0
:1004F000F66E010EF76E0B0E2F6EC1D6100EE96E62
:1005000029C030F028C02FF0CBD6200E9EA8FED7F1
:10051000AD6E0A0E9EA8FED7AD6E0A0E9EA8FED73F
:10052000AD6E640E2F6E2FDF2950275C09E303E1C7
:100530002650285C05E296908D8096928D9204D08C
:1005400096908D9096928D72295233E128506308CF
:1005500030E396948D9429C032F028C031F0346A8B
:100560000A0E336E23DF02C024F001C023F024C042
:1005700030F023C02FF0326A0A0E316E38DF01509E
:10058000285C216E02502958226E21342F6E2234AD
:10059000306E2F3630362F3630362F363036F00E5E
:1005A0002F1623502F2624503022936A2FC08AFF03
:1005B00034D096948D8429C032F028C031F0346A4A
:1005C000640E336EF3DE02C022F001C021F022C0BF
:1005D00030F021C02FF0326A640E316E08DF02C0A5
:1005E00003F00150285C2F6E02502958306E326E95
:1005F0002FC031F0346A0A0E336ED8DE02C024F008
:1006000001C023F022C030F021C02FF023502F264C
:1006100024503022936A2FC08AFF25A015D0259040
:10062000300E1D5C2D6E300E1E5C2C6E300E1F5C6D
:100630002E6E2D50640DF3CF2FF02C500A0DF35079
:100640002F242E24276A266E27C032F026C031F0D0
:10065000346A640E336EAADE01C02DF02D50640D95
:10066000F350265C2F6E000E2758306E326E2FC06E
:1006700031F0346A0A0E336E99DE01C02CF02D5031
:10068000640DF350265C2F6E000E27582C500A0D77
:10069000F3502F5C2E6E1E0E2F6E75DEF0D603000B
:020000040030CA
:0E00000000220C0E000081000FC00FE00F4028
:00000001FF
;PIC18F458
;CRC=B998  CREATED="17-mai-22 08:53"
