:0400000003EF02F018
:08000800046ED8CF05F0E0CF33
:1000100006F00001E9CF0CF0EACF07F0E1CF08F0DD
:10002000E2CF09F0D9CF0AF0DACF0BF0F3CF12F01C
:10003000F4CF13F0FACF14F0F5CF15F0F6CF16F099
:10004000F7CF17F000C00EF001C00FF002C010F0A3
:1000500003C011F09DA030EF00F09EB05DEF00F006
:100060009DAA36EF00F09EBA62EF00F00EC000F0DD
:100070000FC001F010C002F011C003F00CC0E9FF86
:1000800007C0EAFF078E08C0E1FF09C0E2FF0AC00F
:10009000D9FF0BC0DAFF12C0F3FF13C0F4FF14C086
:1000A000FAFF15C0F5FF16C0F6FF17C0F7FF0450A2
:1000B00006C0E0FF05C0D8FF1000CF6ACE6A9E9050
:1000C00036EF00F0036A1E501B0FE96E000E03208E
:1000D000EA6E9EAAFED7AECFEFFF1B503A0808E1AA
:1000E00023B006D01E2A1E50040802E21E6A238096
:1000F0009E9A36EF00F064697374616E63652065E3
:100100007374206567616C65203A20256C64200A51
:1001100000008E0E006E2EC001F02DC002F0036AAA
:10012000015209E102C001F0026A080E005E0152AC
:1001300002E1006A08D0D89001BE04D00236013630
:100140000006F9D7019E55EF02F02D50D8B471D0BA
:10015000006E3150D8B46DD0002604E3810E002625
:1001600068E204D07F0E005E64E363E02EC035F0E9
:100170003250351A2E8E328E30503402F4CF37F092
:100180002F503302F4CF03F0F3CF36F03402F350A4
:100190003726F4503622000E032230503302F3503B
:1001A0003726F4503622000E026A032202222E5015
:1001B0003402F3503626F4500322000E02222E5051
:1001C0003302F3500326F4500222000E016A01228A
:1001D00030503202F3503626F4500322000E022231
:1001E00001222F503202F3500326F4500222000E57
:1001F00001222E503202F3500226F4500122002A2E
:1002000001BE05D036360336023601360006000E32
:1002100036AE0AD0032A02220122015005E1025023
:1002200003E1035001E1002A35BE018E35AE019E87
:1002300004D0006A016A026A036A66EF02F08E0E59
:10024000006E2D50005E2EC002F02FC001F0028E15
:10025000005209E0D890025202E1015204E0023259
:100260000132002EF7D72EAE05D0011E021E012A44
:10027000D8B4022A6FEF02F00900F6CF2EF0F7CFC4
:100280002FF0F5509EA8FED7AD6E2EC0F6FF2FC002
:10029000F7FF2D2EF1D77AEF02F0EACF35F0E9CF54
:1002A00034F02EAE08D0348E34A8342A2D1E2E1EE3
:1002B0002D2AD8B42E2A2E38F009306E3026E20FBF
:1002C000316E320F336E2E500F0B3126312633260E
:1002D000E90F326E322632262D380F0B32263326A6
:1002E00032363336331E33362D500F0B332630362D
:1002F000070E2F6E0A0E32063326FDE33106322634
:10030000FDE330063126FDE32F063026FDE3EA6AE1
:100310002F0EE96E070E3414349CED52341407E1AD
:1003200034B8EE5234B803D0200E006E20D0E92647
:10033000000EEA22E950330803E1EA5201E1348C6D
:10034000EF50006E08E134BC06D034B814D034B697
:1003500002D0200E0BD034AE06D02D0E006EED5024
:10036000349C349E04D034863498300E00260050DD
:100370009EA8FED7AD6EEE5034ACDCD781EF02F014
:10038000EA6A2E0EE96EEF500DE0060E016E006A6D
:10039000002EFED7012EFBD77B0E006E002EFED75F
:1003A000EF2EF3D71200016A026A006A036A325024
:1003B00002E1315018E0100E336ED8902F363036EF
:1003C000003603363250035C02E13150005C07E333
:1003D0003150005ED8A003063250035ED88001364B
:1003E0000236332EEAD712002D502F02F3CF01F040
:1003F000F4CF00F03002F35000262E502F02F350BD
:100400000020026E1200F86AD09E078E810EAF6E39
:10041000A60EAC6E900EAB6E1E6A2390256A640E1B
:10042000246EC180C182C184C196070EB46E196A60
:100430001A6AC180C182C184C196C2909698C66A68
:10044000D190800ED56EB50ECD6E000ECA6E000E28
:10045000CB6E070EB46E9550956E9650966E100E3C
:10046000006E002EFED70000B450A19CB56A9D8A94
:10047000C00EF212D36A94928B82A60E006E002EEA
:10048000FED7000094928B92948082A0FDD7CF6A11
:10049000CE6A948082B0FDD7CE50286ECFCF29F09F
:1004A00029C02EF028C02DF034D603C030F002C091
:1004B0002FF001C02EF000C02DF0420E346E600E01
:1004C000336E650E326E790E316E3FD603C030F05A
:1004D00002C02FF001C02EF000C02DF0B0D602C037
:1004E00027F001C026F0F60EF66E000EF76E150E20
:1004F0002D6EC2D6100EE96E27C02EF026C02DF04C
:10050000CCD6200E9EA8FED7AD6E0A0E9EA8FED7B2
:10051000AD6E0A0E9EA8FED7AD6E640E2E6E30DF55
:100520002750255C09E303E12450265C05E2969000
:100530008D8096928D9204D096908D9096928D7229
:10054000275233E12650630830E396948D9427C0F8
:1005500030F026C02FF0326A0A0E316E24DF02C05E
:1005600020F001C01FF020C02EF01FC02DF0306A17
:100570000A0E2F6E39DF0150265C216E025027587B
:10058000226E1F342D6E20342E6E2D362E362D36D3
:100590002E362D362E36F00E2D1621502D262250B9
:1005A0002E22936A2DC08AFF4AD096948D8427C04C
:1005B00030F026C02FF0326A640E316EF4DE02C0D5
:1005C00020F001C01FF096948D8427C030F026C023
:1005D0002FF0326A640E316EE6DE02C020F001C0F8
:1005E0001FF020C02EF01FC02DF0306A640E2F6E59
:1005F000FBDE02C003F00150265C2D6E025027582E
:100600002E6E306E2DC02FF0326A0A0E316ECBDEA8
:1006100002C022F001C021F01F342D6E20342E6E56
:100620002D362E362D362E362D362E36F00E2D1634
:1006300021502D2622502E22936A2DC08AFF23A0FE
:1006400015D02390300E1C5C2B6E300E1D5C2A6E74
:10065000300E1E5C2C6E2B50640DF3CF2DF02A5003
:100660000A0DF3502D242C24256A246E020E2D6EC3
:0E067000960E2E6E85DE2D2EFBD7FDD60300D6
:020000040030CA
:0E00000000270F0E000085000FC00FE00F401C
:00000001FF
;PIC18F458
;CRC=798B  CREATED="17-mai-22 11:47"
